:020000040800F2
:10000000580D0020F1010008635D0008632B000813
:10001000615D0008DD1500088B600008000000002D
:10002000000000000000000000000000135F000856
:100030001716000800000000115F0008155F000897
:100040000B0200080B0200080B0200080B0200085C
:100050000B0200080B0200080B0200080B0200084C
:100060000B0200080B0200080B020008E115000853
:100070000B0200080B0200080B0200080B0200082C
:100080000B0200080B0200088D1400080B02000888
:100090000B0200080B0200080B0200080B0200080C
:1000A0000B0200080B0200080B0200080B020008FC
:1000B0000B0200080B0200080B0200080B020008EC
:1000C0000B0200080B0200080B0200080B020008DC
:1000D0000B0200080B0200080B0200080B020008CC
:1000E0000B0200080B0200080B0200080B020008BC
:1000F0000B0200080B0200080B0200080B020008AC
:100100000B0200080B0200080B0200080B0200089B
:100110000B0200080B0200080B0200080B0200088B
:100120000B0200080B0200080B0200080B0200087B
:1001300000F002F800F04DF80AA090E8000C8244AC
:100140008344AAF10107DA4501D100F042F8AFF289
:10015000090EBAE80F0013F0010F18BFFB1A43F0A5
:1001600001031847047C0000247C0000103A24BFDF
:1001700078C878C1FAD8520724BF30C830C144BF0C
:1001800004680C607047000000230024002500264E
:10019000103A28BF78C1FBD8520728BF30C148BFEA
:1001A0000B607047662906F01581642900F07C8099
:1001B000782900F0B580002070471FB500F028FCBA
:1001C00004000020002105F0A9FFE0601FBD10B56C
:1001D00010BD00F01DFD1146FFF7EFFF05F081FF98
:1001E00000F03BFD03B4FFF7F2FF03BC00F07EFD1F
:1001F0000948804709480047FEE7FEE7FEE7FEE7BB
:10020000FEE7FEE7FEE7FEE7FEE7FEE704480549F6
:10021000054A064B70470000935F00083101000853
:1002200058070020580D00205809002058090020C8
:100230000FB41CB5074B06AA7B446946009005988D
:1002400000F0CDFB0020694600F0DCFB1CBC5DF833
:1002500014FB0000C907000070B5044685690068FA
:10026000C10601D5302600E02026C00707D070BDAA
:10027000D4E9012130469047206A401C20626D1E5F
:10028000F6D570BD70B5044685690078C00707D102
:1002900070BDD4E9012120209047206A401C2062D3
:1002A0006D1EF6D570BD00002DE9F0410646002414
:1002B00010687529314616A510D0AFF300800028CC
:1002C00002DA404213A507E031688A0701D512A57A
:1002D00002E0490704D511A5012401E0AFF3008035
:1002E00000210A2206F1240709E0B0FBF2FCB0FB72
:1002F000F2F302FB1C00303078541846491C0028E9
:10030000F3D123462A463046BDE8F04100F0FAB862
:10031000000000002D0000002B0000002000000065
:1003200070B504460D4621461068AFF30080218861
:10033000090502D50F4A7A4402E00E4A7A440E3289
:10034000002104F1240305E000F00F060009965D8A
:100350005E54491C0028F7D120780023000704D5FB
:10036000702D02D009B1022311322046BDE8704041
:1003700000F0C8B85E7900002DE9F05F89460446B8
:100380004FF0000ADFF824B1FB44C0F820A020465B
:10039000E168884700287DD0252806D0D4E90121CE
:1003A0009047206A401C2062F1E700255F46204606
:1003B000E16888472028064607DB312E05D2B819A8
:1003C00010F8200C08B10543F1E7A80701D525F086
:1003D0000405C4F81CA00027C4F818A02A2E09D0D0
:1003E000304605F077FE38B304EB8708303EC8F896
:1003F000186019E059F8041B204604EB870291614C
:10040000E1688847012F064618D1E069002820DA04
:1004100025F020051DE0D8F8180000EB800006EB61
:1004200040003038C8F818002046E1688847064682
:1004300005F050FE0028EED1012F0AD02E2E08D153
:100440002046E16888477F1C0646022F45F02005BC
:10045000C4DBA069002803DA404245F00105A06131
:10046000E80701D025F01005A6B1A6F14100192832
:1004700002D8203645F400654A46314620462560BC
:100480004D46FFF78FFE60B1012807D0ED1D25F026
:10049000070000E007E000F1080978E705F104092A
:1004A00075E730467AE7206ABDE8F09F34790000AE
:1004B0004FF0000200B5134694469646203922BFFD
:1004C000A0E80C50A0E80C50B1F12001BFF4F7AF48
:1004D000090728BFA0E80C5048BF0CC05DF804EB2A
:1004E000890028BF40F8042B08BF704748BF20F898
:1004F000022B11F0804F18BF00F8012B7047704796
:10050000704770472DE9F0470D46994692460446DC
:1005100000F124080168880604D5E06921F0100183
:10052000216000E00120A84201DD471B00E0002718
:10053000A1697A1902EB0900081AA0612078C006A7
:1005400002D42046FFF788FE002608E0D4E9012106
:100550001AF806009047206A401C761C20624E451F
:10056000F4DB2078C0060AD52046FFF775FE06E0CA
:10057000D4E9012130209047206A401C2062381EB7
:10058000A7F10107F4DC07E0D4E9012118F8050020
:100590009047206A401C2062281EA5F10105F3DC6B
:1005A0002046FFF76FFE2078000602D50220BDE846
:1005B000F0870120FBE770472DE9FF4F0C461E46F0
:1005C0004FF0FF378BB0D2E90001DDF860800A9070
:1005D0008A46C1F30A5505B93D46002108464FF049
:1005E0000000BAF1000F00F4400005DA00EB8000D3
:1005F0004FF4400101EA50004FEA9059B9F1010F60
:1006000000DDB9460A9850EA4A000ED044F6105070
:10061000A5F2FF3545432F14B8F1000F1ED07542E7
:10062000291E1EDDC9F100021CE0B8F1010F4FF0D8
:10063000000001D0302103E0F24305E02154401CCA
:10064000B042FBDB30460022002121540B99C1F857
:100650000880C1E900200FB0BDE8F08FBD1B6D1C04
:10066000DEE74A4600DA694206A800F05BFA06AB0C
:1006700093E8070003AB83E8070050460A9900F0AF
:100680003CFB8DE80700A0F500501F380090039850
:10069000002D0ADD42F21F014A460844002303A947
:1006A0000390684600F0A5FD09E0A0F500504A4619
:1006B0001F38002303A90390684600F0AFFD8DE8C2
:1006C00007000004000C03D04FF0FF30410800E0A9
:1006D0001046B8F1000F03D00022009215461EE02C
:1006E000751E05D400F098F9303262556D1EF9D5AB
:1006F000B3460122084302D000227F1C04E0207888
:10070000302801D100227F1E002A099784D01DE0E5
:10071000112D07DA00F080F9303262556D1C50EA75
:100720000102F5D1084302D00098C8B10EE00021C3
:10073000681E05E0235C625C63542254401E491C21
:100740008142F7DBAB46A81B401E0990002004F84D
:100750000B000B98099AC0F80880C0E9002B7AE7D3
:1007600011264FF0000857E72DE9F04F8846044660
:10077000D21D22F0070191B0D1E90001CDE90A01B3
:1007800005F084FC02460B98C00F01D02D2007E035
:100790002068810701D52B2002E0202101EAC0005A
:1007A000032A099001D0072A05DB0346414620466B
:1007B00000F078F90BE12078800601D5E06900E0CF
:1007C0000620B8F1650F814606D0B8F1660F18D043
:1007D000B8F1670F70D131E00020B9F1110F00902E
:1007E00001DB112301E009F101030AAA01A90CA808
:1007F000FFF7E2FEDDE90C70002609F101058346F2
:1008000047E001204B4600904FF000470AAA01A99B
:100810000CA8FFF7D1FEDDE90DB00C995D4600266E
:1008200010B909F101000D18B9EB050003D4C0F1AE
:10083000FF3609F10105A5EB09002BE0B9F1010F25
:1008400001DA4FF001090020B9F1110F009048467C
:1008500001DD112300E003460AAA01A90CA8FFF755
:10086000ABFEDDE90C704D4600268346207800077C
:100870000AD4AB4500DA5D4601A8012D04DD41191B
:1008800011F8011C302907D04F4502DA17F1040F87
:1008900004DA012082460FE06D1EEEE7002F02DC35
:1008A000ED1B3E4403E0781CA84200DD7D1CB81B14
:1008B00000F1010A4FF000472078000703D4AA4551
:1008C00001DB4FF0FF3A0021B7F1004F0DF1430873
:1008D0008DF8431024D002202B23002F01DA7F4211
:1008E0002D230A21021EA0F1010000DC5FB197FB5D
:1008F000F1FC97FBF1F201FB1C7C17460CF1300C6C
:1009000008F801CDEEE7A8F1010003702188090580
:1009100001D5452100E06521A0F1010800F8011C86
:1009200009980FA9A1EB0807FF1D00B1012041198B
:1009300001EBEA70A1693844081A401EA0612078D2
:10094000C00602D42046FFF787FC099828B1D4E9F5
:1009500001219047206A401C20622078C00622D5E1
:100960002046FFF779FC1EE0002E04DBB34502DDD4
:1009700001A8805D00E03020D4E901219047206A81
:10098000401C2062761CAAF101005FEA000A0AD12D
:1009900000F03EF8C0680168405CD4E9012190474E
:1009A000206A401C2062281EA5F10105DCDC07E05E
:1009B000D4E9012118F8010B9047206A401C2062FD
:1009C000381EA7F10107F3DC2046FFF75BFC03208C
:1009D00011B041E601694A1C02610878704700B510
:1009E0008FB0CDE901310021059105497944CDE968
:1009F000031011466846FFF7BFFC0FB000BD0000B2
:100A0000E5FFFFFF0A6802F8010B0A60704700006B
:100A1000004870471407002030B5B0F10A024FEAD1
:100A2000900E71F100034EEA817EB0EB0E0061EB97
:100A300091014FEA101E4EEA017E10EB0E0041EBD1
:100A400011114FEA102E4EEA016E10EB0E0041EB31
:100A500011214FEA104E4EEA014E10EB0E0041EB11
:100A60001141401841F100014FEAD00040EA4170C5
:100A70004FEAD10110EB80054FEA810444EA9074FB
:100A800044EB01046D1944EB0404521BA3414FF0E5
:100A9000000348BF0A3200D530BD401C41F10001BF
:100AA00030BD00002DE9F0411F46044603260168D1
:100AB000072A01F4006004DB08B116A505E016A5BD
:100AC00003E008B115A500E015A521F01000206095
:100AD000A069C01EA0610FB1401EA0612046FFF7B3
:100AE000BBFB4FB1D4E9012138469047206A401C36
:100AF0002062C01C206206E0206AFAE7D4E90121E6
:100B000015F8010B9047761EF8D22046FFF7BAFB86
:100B1000BDE8F0814E414E006E616E00494E4600C8
:100B2000696E66002DE9F047814616468AB0354861
:100B300078440DC88DE80D0032487844801C03AC21
:100B40000DC884E80D0041F69B300844372190FB26
:100B5000F1F290FBF1F5A5F1800501FB12041B3CBD
:100B600002D56442012000E00020DFF898A0804612
:100B70000027FA44AAF1BE0A0EE0E0070AD0324686
:100B8000684607EB470101230AEB810100F046FBB1
:100B90008DE8070064107F1C002CEED1194F7F44B4
:100BA000AE3F19E0E80715D007EB04100DF1180A65
:100BB00090E80E008AE80E00C068F04201D1981952
:100BC00008903246012306A903A800F027FB03ABD7
:100BD00083E807006D10641C002DE3D14FF0010382
:100BE00032466946B8F1000F03A802D000F001FBBD
:100BF00001E000F013FBC9E90001C9F808200AB0C0
:100C0000BDE8F0871C72000000487047F406002021
:100C10007546FFF7F9FFAE4605006946534620F0DA
:100C20000700854618B020B5FFF7F0FABDE8204070
:100C30004FF000064FF000074FF000084FF0000B98
:100C400021F00701AC46ACE8C009ACE8C009ACE84B
:100C5000C009ACE8C0098D46704710B50446AFF333
:100C600000802046BDE81040FFF7BCBA4FF0013CC1
:100C700050F8042B51F8043B9A4221D1A2EB0C030B
:100C8000934313EACC1317D150F8042B51F8043BCB
:100C90009A4215D1A2EB0C03934313EACC130BD168
:100CA00050F8042B51F8043B9A4209D1A2EB0C03F3
:100CB000934313EACC13DBD04FF00000704700BF22
:100CC000D01A01BAB1FA81F101F0180122FA01F04B
:100CD000CB40C1F12001DBB2C0B2C01A2CFA01F343
:100CE000D11A914311EAC311E6D170470149182086
:100CF000ABBEFEE72600020070475FEA400C08BF6B
:100D000091F0000F4FEA8C234FEAC12243EA515180
:100D10004FEA1C5018BF00F5F0404FEA300018BFF2
:100D200041F000415FEA6C5C00F02980BCF1FF3FBC
:100D300008BF40F080407047130C06BF12044FF00C
:100D4000100C4FF0000C130E04BF12020CF1080C33
:100D5000130F04BF12010CF1040C930F04BF920097
:100D60000CF1020CD30F04BF52000CF1010C114620
:100D70004FF00002A0F11F00A0EB0C00704711F033
:100D8000004F08BF704731F000413FF4D5AF0B0C66
:100D900006BF09044FF0100C4FF0000C0B0E04BFFF
:100DA00009020CF1080C0B0F04BF09010CF1040C33
:100DB0008B0F04BF89000CF1020CCB0F04BF49005C
:100DC0000CF1010CCCF12003A0EB0C0022FA03F390
:100DD00002FA0CF241EA030100F10100704720F031
:100DE0007F4C80EA030023F07F47ACEB070303F559
:100DF0007C5300F0004003F1FF032DE980494FEAE6
:100E0000154B09B44FEA144325EA0B4E24EA034874
:100E10000FF2042606EB132749083E785FEA3202F8
:100E200003FB0667C7F5000707FB06F64FEA5437D2
:100E30004FEAD64606F1020607FB066CCCF1005CD1
:100E40004FEA1C472CEA074C07FB06F40CFB06F59F
:100E500004EB15464FEA961634BF00204FF00040D1
:100E60004FEAD13706FB07FC4FEA1C4C0CFB0BF793
:100E7000D21B03FB0CF761EB07010CFB0EF7B0EB89
:100E8000074072EB17420CFB08F734BFA2EB074296
:100E9000B2EB074261EB17414FEA0C444FEA91076E
:100EA00006FB07FC4FEA1C4C0CFB0BF7B0EBC740F2
:100EB00072EB573203FB0CF734BFA2EBC742B2EB25
:100EC000C74261EB57310CFB0EF7B0EBC70072EB7A
:100ED00057720CFB08F734BFA2EBC702B2EBC70294
:100EE00061EB5771039F4FEA816141EA921104EB74
:100EF000CC044FEAD1374FEA826206FB07FC42EA94
:100F000090124FEA80604FEA1C4C0CFB0BF7D21B8F
:100F100003FB0CF761EB07010CFB0EF7B0EB07408E
:100F200072EB17420CFB08F734BFA2EB0742B2EB9F
:100F3000074261EB17414FEA8C554FEA910704EBEA
:100F40009C2406FB07FC4FEA1C4C0CFB0BF7B0EB98
:100F5000C74072EB573203FB0CF734BFA2EBC7421A
:100F6000B2EBC74261EB57310CFB0EF7B0EBC70099
:100F700072EB57720CFB08F734BFA2EBC702B2EB5F
:100F8000C70261EB577115EB4C254FEA816141EACD
:100F900092114FEA82624FEAD13742EA901206FB81
:100FA00007FC44F100044FEA80604FEA1C4C0CFB44
:100FB0000BF7D21B03FB0CF761EB07010CFB0EF7E1
:100FC000B0EB074072EB17420CFB08F734BFA2EB03
:100FD0000742B2EB074261EB174115EB1C154FEAD4
:100FE000813141EA92414FEA823242EA90424FEA2D
:100FF00080304FEA0C7644F1000448EA03434EEA9D
:101000000B484FF0000EB2EB080C71EB030724BF46
:10101000624639464EEB0E0E4FF0000B001852415F
:1010200049414BEB0B0BB2EB080C71EB03077BF167
:10103000000B24BF624639464EEB0E0E4FF0000BFC
:101040000018524149414BEB0B0BB2EB080C71EB12
:1010500003077BF1000B24BF624639464EEB0E0EB0
:1010600051EA020718BF46F0010616EB0E7655F15D
:10107000000254F1000103D5BDE88901BDE80088F4
:10108000BDE88901BDE80048B619524141EB0101B4
:10109000A3F10103704780807F7E7D7C7B7A797825
:1010A000777676757473727171706F6E6E6D6C6C2D
:1010B0006B6A6A69686867666665646463636261CF
:1010C0006160605F5F5E5E5D5D5C5C5B5B5A5A5950
:1010D00059585857575656555555545453535252BC
:1010E0005251515050504F4F4F4E4E4D4D4D4C4C14
:1010F0004C4B4B4B4A4A4A4949494848484747475D
:101100004746464645454544444444434343434299
:10111000424242414141002B9C4630D477002BD0C3
:101120001CB54FEA370703B44FF010004FF0100121
:10113000BAF1000F06D0BCF1000FDCBF40F0080090
:1011400040F008014FF000000FBCBDE810400BF16B
:10115000010BBBF1010F08BF5FEA170722BF12F1B5
:10116000010211F101014FF0004143F1000300F0D1
:10117000004043EA00007047F9D35708D0E746EA39
:10118000064613F1400F4FEA16461FDD13F1200FFC
:10119000DFBF16430A46002120335B42BED0C3F1B5
:1011A000200746EA064602FA07F74FEA164646EADD
:1011B0000706C3F1200722FA03F201FA07F721FA22
:1011C00003F14FF0000342EA0702A7E746EA0206EE
:1011D00046EA06464FEA164646EA0106BCBF46EA1C
:1011E0000646360C4FF000034FF000024FF00001AE
:1011F00094E72DE9804C9A46934670B491E8380004
:1012000007C831EA400C48BF34EA430C03D5FFF766
:10121000E6FDFFF780FFF0BCBDE8008C2DE9804CB7
:101220009A46934670B491E8380007C810F0804F92
:1012300008BF13F0804F03D100F005F8FFF76BFFF4
:10124000F0BCBDE8008C20F07F4780EA030023F06B
:101250007F4C07EB0C03A3F57C5300F00040A3F197
:10126000FE0392F0000F00F0B38095F0000F00F045
:1012700077802DE901494FEA11404FEA144621EAEF
:10128000004800FB06FC24EA064708FB06F607FBBD
:1012900008F800FB07F718EB06484CEB164C4FEA32
:1012A000124B18EB07484FEA15464CEB174022EA61
:1012B0000B4E0BFB06FC25EA06470EFB06F607FB6A
:1012C0000EFE0BFB07F71EEB064E4CEB164C4FF0D9
:1012D00000061EEB074E4CEB174B18EB0B0840F1CA
:1012E000000018EB0E0B58EB000840F100008F1ABD
:1012F0004FF000013CBFC943661B14BFB5EB040CA3
:1013000000213CBFC943F61B4FEA17444EEA8E0E3C
:1013100027EA04454FEA1C4704FB07622CEA074C06
:1013200005FB07F70CFB05F604FB0CFC16EB074668
:1013300042EB174216EB0C4642EB1C421BEB060637
:1013400058EB0202414146EA9E0601D5BDE80189FB
:10135000B619524141EB0101A3F10103BDE8018936
:101360004FEA14454FEA114724EA054621EA074CA3
:1013700005FB07F406FB07F70CFB06F105FB0CFC6D
:1013800011EB074144EB17444FEA124711EB0C41B4
:1013900044EB1C4422EA074C05FB07F206FB07F767
:1013A0000CFB06F605FB0CFC16EB074642EB17425E
:1013B00016EB0C4642EB1C456A1854F1000148BF7D
:1013C0007047B619524141EB0101A3F10103704787
:1013D00095F0000F37D04FEA11424FEA144721EA47
:1013E000024624EA074C02FB07F106FB07F70CFB59
:1013F00006F402FB0CFC14EB074441EB17414FEAE7
:10140000154714EB0C4441EB1C4125EA074C02FB49
:1014100007F506FB07F70CFB06F602FB0CFC16EBC8
:10142000074645EB174516EB0C4645EB1C421219D7
:1014300051F1000148BF7047B619524141EB01011B
:10144000A3F1010370474FEA14454FEA114724EA1C
:10145000054621EA074C05FB07F106FB07F70CFBE5
:1014600006F24FF0000605FB0CFC12EB074241EBC5
:10147000174112EB0C4251EB1C4148BF70479218C8
:1014800041EB0101A3F1010370470000014800F0A6
:10149000F3B900002000002070B5044600688168A0
:1014A000C943C90717D1816821F00101816000F0AB
:1014B000B5FE05460AE000BF00F0B0FE401B022862
:1014C00004D920688068C043C00706D020688068BF
:1014D000C043C007F0D0002070BDA06A40F01000EB
:1014E000A062E06A40F00100E062012070BD10B52A
:1014F0000146406A826A12F0500F05D0006A026B02
:10150000BDE8104008461047816A41F400718162CD
:1015100001688968C1F3424107290CD1017B51B9A7
:10152000816A21F480718162816AC90403D4816A6D
:1015300041F00101816200F065F910BD10B5406A0B
:10154000816A41F040018162C16A41F00401C162D7
:1015500000F091F910BD10B5406A00F08BF910BD94
:10156000F8B500260446009600688168C943C9079B
:101570002DD0816841F0010181601648164900684C
:10158000B0FBF1F000E0401E00900028FBD100F01D
:1015900045FE054616E000BF00F040FE401B022855
:1015A00010D920688068C043C0070BD0A06A40F003
:1015B0001000A062E06A40F00100E06284F824605C
:1015C0000120F8BD20688068C043C007E4D1002036
:1015D000F8BD00001400002040420F00FEE70000AC
:1015E000014800F025BB00005000002030B590F805
:1015F00040500124AC40C56B6C6004686360436874
:10160000102B036803D099600068C26030BD9A60F7
:101610000068C16030BD704772B6FEE730B5B3F503
:10162000804F05D06FF0704140F82210002030BD8F
:101630008C690B688D6823434C688989240144EACE
:101640000524234343EA014150F82230014C234052
:101650001943E9E70000F0CF10B50A6850F82230CE
:1016600023F0010340F822308C68082C23D000239B
:101670004A682243CC681C430B6922431A434B69D6
:101680000E4C1A43CB691A430B6A1A434B6A1A432E
:101690008B6A1A43CB6A1A430B6B1A438B69134349
:1016A0004A6B09681A4350F82130A343134340F8AA
:1016B0002130002010BD4023DAE700007FFF0F003B
:1016C00030B5D1E9003443EA04138C688D892402D3
:1016D00044EA054423430C8A094D00EB820005EBE4
:1016E000045423430C7D6D0105EB04648969234395
:1016F0000B43416801F040410B434360002030BD83
:101700000000F0FF70470000F8B50024009490F846
:1017100024202546012A12D0012280F824204A687C
:101720001F23072A0DD20668776B521E02EB820236
:1017300093409F430B6893401F43776319E0022057
:10174000F8BD06680D2A0AD2376BD21F02EB82025F
:1017500093409F430B6893401F43376309E0F76A48
:101760000D3A02EB820293409F430B6893401F4364
:10177000F7620A68072306680A2A0AD3F7680A3A52
:1017800002EB420293409F438B6893401F43F760F4
:1017900008E0376902EB420293409F438B68934015
:1017A0001F4337610A68102A01D0112A20D1124B39
:1017B00002689A4217D193681B0219D4936843F4C4
:1017C000000393600968102912D10C490C4A09687A
:1017D000B1FBF2F101EB8101490000E0491E0091EB
:1017E0000029FBD104E0816A41F0200181620124DB
:1017F00080F824502046F8BD002401401400002049
:1018000040420F0010B5154986B0884202D104F05D
:10181000A9FA04462021124800F0F2FC204604F008
:10182000C8FC4FF066320F4B04F0D6FC6FF00B0291
:1018300004F004FE02460B460BA102A8FEF7F8FCDA
:10184000102002A9CDE900010346C82200214FF46F
:10185000167004F01FF906B010BD00002000002033
:101860000018014066660A404144433A252E34661A
:10187000560000007047704710B504460068416884
:10188000890626D50168890723D5A16AC90603D42C
:10189000A16A41F40071A1628168C1F34241072944
:1018A00010D1217B71B9416821F020014160A06A0B
:1018B00020F48070A062A06AC00403D4A06A40F043
:1018C0000100A0622046FFF79DFF21686FF0120023
:1018D00008602068416809062ED5016849072BD5A4
:1018E000A16AC90603D4A16A41F40051A1628168CA
:1018F000C1F30231072909D04168490515D481682F
:10190000C1F34241072910D1217B71B9416821F00F
:1019100080014160A06A20F48050A062A06AC005E6
:1019200003D4A06A40F00100A0622046FFF7EAFE5F
:1019300021686FF00C0008602068416849060DD5E9
:101940000068C0070AD0A06A40F48030A062204638
:1019500000F096F821686FF00100086010BD0000EB
:101960002DE9F04104004FF000057FD0A06A002669
:1019700028B9E66284F82460204600F083F8204607
:10198000FFF78AFDA16AC90600D420B1A06A40F021
:101990001000A0626AE0A16A21F4885141F00201BE
:1019A000A162334923688B42E16904D1B1F5402F2C
:1019B00001D14FF40021277B4FF4807C41EA47029C
:1019C00061680A43A168614508D0012906D0002159
:1019D00094F814E0BEF1010F02D00AE06146F7E787
:1019E000C7B1A76A47F02007A762E76A47F0010777
:1019F000E7625F6827F469470F435F60236899686F
:101A00001C4F394011439960A16861450BD00129F1
:101A100009D00CE0DFF860E0A7690EEB47370F4311
:101A200047F40061E5E7218A0D05A5F580152168D9
:101A3000CB6A23F470032B43CB62216889680F4B78
:101A40001940914208D1E662A16A21F0020141F0F9
:101A50000101A162BDE8F081A06A20F0020040F01F
:101A60001000A062E06A40F00100E0620120F1E7AE
:101A7000003C0140FDF7E1FF00E0FFFFFE0E1FFF0D
:101A80007047000070B586B00025064600950195A8
:101A90000295039500681E49884236D11D49886920
:101AA00040F400708861886900F4007004908869CF
:101AB00040F0040088618869694600F004000490E1
:101AC0000220009003200190134800F09DFA144C6E
:101AD0001248C4E900058020C4E90250400020619A
:101AE000800060612020C4E90605204600F0C4F9AA
:101AF00008B1FFF791FD34620022114612206662A0
:101B000000F0F8FB122000F0E7FB06B070BD00000B
:101B1000002401400010024000080140080002407B
:101B2000500000202DE9F047894604463B490068F3
:101B30003B4F0E1D9046884201D0B84207D1306815
:101B400010F4702F03D001252846BDE8F08794F8E3
:101B5000240001280CD0012084F824002046FFF73F
:101B6000FFFC05004FF0000004D084F82400EBE7F0
:101B70000220EAE7A16A40F60162914341F48071D4
:101B8000A1622168B94218D1326812F4702F14D0C2
:101B9000A16A41F48011A1623168490505D5A16AA5
:101BA00021F4005141F48051A162A16AC9040AD50F
:101BB000E16A21F00601E16206E0A26A22F48012E5
:101BC000A2624968E9E7E06284F82400216A1548C6
:101BD0008862216A1448C862216A1448086321682F
:101BE0006FF0020008602068816841F480718160B4
:101BF000216843464A464C31206A00F07BF9206850
:101C00008168C1F342410729816803D041F4801102
:101C1000816099E741F4A001FAE700000024014047
:101C200000280140EF140008571500083D15000872
:101C30002DE9F05FC16B0A6801680B68046C4FF016
:101C4000040808FA04F8844D844E854FDFF814C266
:101C5000DFF81492DFF814A2DFF814B2DFF814E210
:101C600018EA020F65D05FEA437862D50A689206E7
:101C700003D40A6822F004020A60DFF8F0814FF40E
:101C80008062016808F1140813011402414524D947
:101C9000A9420DD0B1420FD0B9421AD0614515D03A
:101CA000494515D0514501D1120312E0594501D1E2
:101CB00004220EE0714501D140220AE06D4D143539
:101CC000A94206D06B4A2832914201D11A4600E05F
:101CD00022466749091F0A6029E0A94213D0B14290
:101CE00015D0B94220D061451BD049451BD0514584
:101CF00002D14FF4800217E0414502D14FF08062DB
:101D000012E0594501D104220EE0714501D1402273
:101D10000AE0584D1435A94206D0564A283291425D
:101D200001D11A4600E022464B4908394A60C16A8F
:101D300071E04FF0020808FA04F818EA020F70D0B8
:101D40005FEA83786DD50A68920606D40A6822F0A5
:101D50000A020A60012180F82110DFF810814FF497
:101D60000072016808F1140813011402414524D9D6
:101D7000A9420DD0B1420FD0B9421AD0614515D059
:101D8000494515D0514501D1120312E0594501D101
:101D900002220EE0714501D120220AE0354D1435B2
:101DA000A94206D0334A2832914201D11A4600E0B6
:101DB00022462F49091F0A6029E0A94213D0B142E7
:101DC00015D0B94220D061451BD049451BD05145A3
:101DD00002D14FF4001217E0414502D14FF00072DA
:101DE00012E0594501D102220EE0714501D12022B5
:101DF0000AE0204D1435A94206D01E4A28329142ED
:101E000001D11A4600E02246134908394A600021F0
:101E100080F82010816A00291CD0BDE8F05F0847D7
:101E2000FFE70825A540154214D01A0712D50A6805
:101E300022F00E020A6090F84020C36B012101FAE3
:101E400002F25A60816380F82110002180F820108E
:101E5000016BE0E7BDE8F09F080002401C00024073
:101E60003000024044000240580002406C00024032
:101E7000080402401C04024030B560B11A4B0268ED
:101E800014219A4209D2194B1344B3FBF1F1890092
:101E9000016417490AE0012030BD134B5B42134433
:101EA000B3FBF1F1890001640F490839C1630221D4
:101EB00080F82110136843F6F0718B43F0E90114A8
:101EC0002143D0E902452C4321430469214344695D
:101ED0002143846921431943116000214163012298
:101EE00042770177084630BD08040240F8FFFDBF85
:101EF0000000024070B5044690F82000002501283B
:101F00000CD0012084F8200094F821600020012EDC
:101F100006D084F820000225284670BD022070BD3E
:101F2000022684F82160A0632068066826F0010676
:101F300006602046FFF75AFBE06A00282068016827
:101F400002D041F00E0106E021F00401016020689A
:101F5000016841F00A0101602068016841F0010157
:101F60000160D9E770B5044600F058F90546601CD9
:101F700002D004480078044400F050F9401BA0420D
:101F8000FAD370BD0800002030B585B00020009065
:101F900001900290039017480168002927D1012180
:101FA00001601548416941F4807141614069022432
:101FB00000F48070049041F20100CDE90004032593
:101FC000694603950D4800F01FF84FF68070CDE983
:101FD0000004694603950A4800F016F84CF2337085
:101FE000CDE9000469460395064800F00DF805B0F8
:101FF00030BD000000000020001002400020014021
:1020000000180140001401402DE9F84FDFF8C89195
:10201000002409F1040A0AF1040B23460F270BF1EF
:10202000040ED1E00125A54006EA0502AA4276D1B8
:10203000DFF8A8C14E68A6EB0C0866452BD00DDC76
:10204000032E34D005DC36B3012E19D0022E2FD149
:102050001BE0112E16D0122E2AD119E0B8F5881FD8
:1020600019D006DCB8F5803F15D0B8F5801F1FD118
:1020700011E0B8F5001F0ED0B8F5041F18D10AE022
:10208000CB6815E0CB681B1D12E0CB6808330FE06E
:10209000CB680C330CE08B682BB1012B4FF008039D
:1020A00003D0456104E0042302E0056100E0002361
:1020B000FF2A01D8064601E000F104064FEA840534
:1020C00001D9A5F12005D6F8008007FA05FC28EA19
:1020D0000C0803FA05F548EA0508C6F800804D68C3
:1020E000ED0070D53E4DAE6946F00106AE61AD69BA
:1020F00024F0030605F0010500953A4D06EB050CAA
:10210000DCF80850A607360F07FA06F825EA080596
:10211000DFF8D480404503D14FF0000825E052E0BD
:10212000DFF8C880404502D14FF001081DE0DFF81C
:10213000C080404502D14FF0020816E0DFF8B480BD
:10214000404502D14FF003080FE0DFF8AC80404576
:1021500002D14FF0040808E0DFF8A080404502D12A
:102160004FF0050801E04FF0060808FA06F848EAC3
:102170000508CCF808804D68D9F80060ED034D469D
:1021800001D5164300E096432E604D68DAF80060F2
:10219000AD03554601D5164300E096432E604D68C9
:1021A000DBF80060ED025D4601D5164300E0964382
:1021B0002E604D68DEF80060AD02754601D516430D
:1021C00000E096432E60641C0A681646E2407FF4E5
:1021D00029AFBDE8F88F0000000401400000111095
:1021E000001002400000014000080140000C0140C6
:1021F000001001400014014000180140001C014083
:10220000C26821EA02030A4043EA024101617047C1
:102210000AB1016170470904FBE7000001488068CA
:1022200070470000080000200248816802781144CD
:102230008160704708000020074810B5016841F030
:1022400010010160032000F075F80F2000F006F87F
:1022500000F024F8002010BD0020024070B50D4DA4
:1022600004464FF47A712878B1FBF0F00A49096806
:10227000B1FBF0F000F076FB48B9102C07D2002239
:102280002146501E00F036F800206C6070BD012021
:1022900070BD000008000020140000200C4808B5A4
:1022A000816941F001018161816901F001010091C1
:1022B000C16941F08051C161C06900F08050009057
:1022C0000448416821F0E06141F00071416008BDBF
:1022D0000010024000000140002809DB00F01F024E
:1022E000012191404009800000F1E020C0F8001178
:1022F00070470000F0B40E4B1B680C46C3F302237A
:10230000C3F10705042D00D90425191D072901D2A1
:10231000002300E0DB1E012606FA05F1491E2140DC
:1023200099409E40761E16403143F0BC03F0C2BE79
:102330000CED00E0064900F0070208684FF6FF03C5
:10234000184040EA0220034A10430860704700002A
:102350000CED00E00000FA052DE9F8430546007891
:10236000354CC00754D0E0690026C00008D4E069AD
:1023700040F08050E061E069012600F0805000905C
:102380002E480168C90512D40168804641F4807165
:102390000160FFF743FF074605E000BFFFF73EFF80
:1023A000C01B642823D8D8F80000C005F6D5206AE1
:1023B00010F4407021D0A98801F4407181421CD0F2
:1023C000206A1F49012220F440700A6000220A603E
:1023D0002062C00711D0FFF721FF074641F288387D
:1023E00008E000BFFFF71AFFC11B414502D90320D7
:1023F000BDE8F883206A8007F4D5206A696820F474
:102400004070084320621EB1E06920F08050E06116
:102410002878800705D56068A96820F44040084303
:1024200060602878C00605D56068696920F480007E
:10243000084360600020DBE70010024000700040AD
:10244000400442422DE9F0470F46050061D0434E5B
:10245000306800F00700B84209D2306820F0070069
:1024600038433060306800F00700B84251D1286826
:102470003B4C810712D5400703D5606840F4E0600B
:1024800060602878000703D5606840F460506060A1
:102490006068A96820F0F000084360602878C007F1
:1024A00028D06868012810D02168022810D0890738
:1024B00000292EDA616821F0030101436160FFF712
:1024C000ADFE804641F288390DE021688903EFE7CF
:1024D0008901EDE7FFF7A2FEA0EB0801494502D90B
:1024E0000320BDE8F0876068696800F00C00B0EB7D
:1024F000810FEFD1306800F00700B8420BD9306887
:1025000020F0070038433060306800F00700B84220
:1025100001D00120E5E72878400705D56068E96823
:1025200020F4E060084360602878000706D5606802
:10253000296920F4605040EAC100606000F018F89A
:102540006168084AC1F30311515CC840064908603C
:1025500006480068FFF782FE0020C2E70020024024
:1025600000100240C8640008140000200C00002085
:1025700012A185B00FC98DE80F0014A0144A00689D
:1025800004905168134801F00C03042B10D0082B61
:102590000ED1C1F38343C9031DF803000AD5516866
:1025A00004AAC1F34041515C0A4A5043B0FBF1F028
:1025B00005B0704708494843FAE7000002030405E4
:1025C000060708090A0B0C0D0E0F1010010200007F
:1025D0000010024000127A0000093D002DE9F84F7A
:1025E000040070D02078C04DC00749D06868C0F39F
:1025F0008100012807D06868C0F38100022809D152
:102600006868C00306D52868800339D5606800284B
:10261000E7D035E06068B0F5803F0BD010B1B0F581
:10262000A02F11D0286820F480302860286820F47A
:10263000802002E0286840F480302860606890B113
:10264000FFF7ECFD06460AE0286840F48020286089
:10265000F0E700BFFFF7E2FD801B642873D828680D
:102660008003F7D50CE0FFF7D9FD064605E000BF73
:10267000FFF7D4FD801B6428F0D828688003F7D4C6
:1026800020789A4E80074FF001094FF0000839D5A5
:10269000686810F00C0F07D06868C0F3810002284A
:1026A00009D16868C00306D42868800714D520695A
:1026B000012808D110E02069B0B1C6F80090FFF7FA
:1026C000ADFD074605E00AE1FFF7A8FDC01B0228A3
:1026D000C4D828688007F7D52868616920F0F80019
:1026E00040EAC10028600DE0C6F80080FFF796FDC3
:1026F000074604E0FFF792FDC01B022823D8286894
:102700008007F7D4207800072CD57948A169D9B182
:10271000C0F80090FFF782FD074604E0FFF77EFD5A
:10272000C01B02280FD8686A8007F7D571484FF49C
:10273000FA510068B0FBF1F0009000BF0098411E14
:102740000091FAD20EE080E0C0F80080FFF766FD4D
:10275000074604E0FFF762FDC01B022875D8686ACF
:102760008007F7D42078400760D5E8690027C000CB
:1027700008D4E86940F08050E861E869012700F07A
:10278000805000905C480168C90513D401688346F5
:1027900041F480710160FFF741FD824606E000BF11
:1027A000FFF73CFDA0EB0A0064284ED8DBF80000E0
:1027B000C005F5D5E06801280AD008B1052813D076
:1027C000286A20F001002862286A20F0040002E054
:1027D000286A40F001002862E06841F2883B98B125
:1027E000FFF71CFD82460BE0286A40F004002862D7
:1027F000EEE700BFFFF712FDA0EB0A0159455AD8DA
:10280000286A8007F6D50CE0FFF708FD824605E050
:10281000FFF704FDA0EB0A0159454CD8286A800750
:10282000F6D41FB1E86920F08050E861E06988B310
:102830006968C1F38101022944D00228C6F860808A
:1028400004D0FFF7EBFC044638E034E0FFF7E6FC89
:10285000074604E0FFF7E2FCC01B02282BD82868DB
:102860008001F7D4206AB0F5803F05D16868A1687F
:1028700020F4003008436860D4E90801084369681F
:1028800021F4741108436860C6F86090FFF7C6FC35
:10289000044606E025E000BFFFF7C0FC001B02284D
:1028A00009D828688001F7D51BE000BFFFF7B6FC08
:1028B000001B022802D90320BDE8F88F2868800198
:1028C000F4D40EE00128F7D06868226A00F4803161
:1028D000914204D1616A00F47010884201D0012055
:1028E000EAE70020E8E70000001002400000424252
:1028F00080044242140000200070004070B515466C
:102900000E46040007D0A069B0F5807F03D094F88C
:10291000410010B107E0012070BD002084F84000A4
:10292000204600F01DF804F108012068FEF794FE2F
:102930003146A2682068FEF7C3FED4E901022946A9
:10294000236BFEF76BFEA168206850F8212042F04F
:10295000010240F82120012084F84100002070BDD0
:10296000FFF712BB10B5401EB0F1807F01D30120EC
:1029700010BD4FF0E02460610F21601703F09AFB57
:102980000020A06107202061002010BD70B590F8E4
:102990003C20012A2CD0012480F83C40022280F8FF
:1029A0003D2003685A689D6822F070060A68324329
:1029B0005A60104B02689A420ED00F4B9A420BD0CD
:1029C000B2F1804F08D00D4B9A4205D00C4B9A4281
:1029D00002D00C4B9A4204D1496825F08003194378
:1029E000916080F83D40002180F83C10084670BDA1
:1029F000022070BD002C0140003401400004004062
:102A000000080040000C004010B5040003D094F80A
:102A10003D0010B107E0012010BD002084F83C000B
:102A2000204600F01FF8022084F83D00211D206898
:102A300003F0B0FA012084F8460084F83E0084F8E0
:102A40003F0084F8400084F8410084F8420084F894
:102A5000430084F8440084F8450084F83D000020D9
:102A600010BD000008B500680649884208D1064834
:102A7000C16941F00201C161C06900F0020000902B
:102A800008BD0000000400400010024070B504467C
:102A900090F83C00012817D0012584F83C50022012
:102AA00084F83D002068826822F0770222F47F4299
:102AB00082600868502830D00DDC20284DD005DC1D
:102AC00098B310283BD148E0022070BD302844D094
:102AD000402834D139E0602828D0702806D0B0F5DD
:102AE000805F2CD0B0F5005F29D10AE0CB68D1E936
:102AF0000121206803F094FA2068816841F0770191
:102B000009E0CB68D1E90121206803F089FA206847
:102B1000816841F48041816011E0CA684968206899
:102B200003F090FA5021206807E016E0CA6849686F
:102B3000206803F098FA6021206803F07BFA84F89B
:102B40003D50002084F83C0070BDCA684968206888
:102B500003F078FA40212068EFE72268014610462A
:102B6000EBE7FEE72DE9FF4F8046894692460024B9
:102B700009EB080000EBD071C1F34F052E462CE0A5
:102B8000601C84B2574622E0B81C1FFA80FB5B46EB
:102B900032463946304600F035F9C4EBC40000EB4C
:102BA0008000281A40450FDDC4EBC40101EB810110
:102BB000691A8AB2C4EBC40101EB8101691A88B2B7
:102BC0005B46394600F01EF907F1080087B203980A
:102BD0008742D9DB06F1230086B24E45D0DBBDE843
:102BE000FF8F2DE9FF4F81468846924608EB09008A
:102BF00000EBD071C1F34F040025264626E0681C87
:102C000085B257461CE0B81C1FFA80FB33465A4673
:102C10003146384600F0F6F8232000FB1540002826
:102C20000BDD232000FB154083B2232000FB154061
:102C300081B25A46384600F0E5F807F1080087B23D
:102C400003988742DFDB06F1230086B24645D6DBD8
:102C5000BDE8FF8F70B50446002609480588408806
:102C600045430021084602F0EFFD02F053FF00BF8C
:102C700002E004480480761CAE42FAD370BD000026
:102C80006C0100200008006CF0B504460D461646A5
:102C90001F462B464FF42F722146002000F0B2F859
:102CA0004FF4E1733A461421304600F0ABF8F0BD22
:102CB00000B50748808845F21051884204D14FF48E
:102CC000245002F021FF02E0292002F01DFF00BD88
:102CD0006C01002010B5044649488471002C45D190
:102CE000F020474908804FF4A0704880084680884B
:102CF00045F21051884210D14FF4305040490881BC
:102D00004FF4285048814FF42C5088814FF4F070D4
:102D100008804FF4487048801AE03948808841F6AE
:102D2000631188420DD12C20354908812B20488120
:102D30002A2088814FF4F07008804FF44870488052
:102D400006E02C202E4908812A2048812B208881EA
:102D50002B48808845F2103188424CD14FF4A07046
:102D6000274908804FF4F070488044E04FF4A07089
:102D700023490880F02048800846808845F2105199
:102D8000884210D14FF430501D4908814FF428502B
:102D900048814FF42C5088814FF4487008804FF4DC
:102DA000F07048801AE01648808841F66311884226
:102DB0000DD12C20124908812A2048812B2088819E
:102DC0004FF4487008804FF4F070488006E02C20E3
:102DD0000B4908812A2048812B2088810848808857
:102DE00045F21031884206D14FF4F0700449088052
:102DF0004FF4A0704880002002F00CFC10BD0000D1
:102E00006C0100202DE9FF4F84B081468A460020E6
:102E1000039002900698A0EB09050798A0EB0A061C
:102E2000CDF80490CDF800A0002D01DD012705E0CC
:102E30000DB9002702E04FF0FF376D42002E02DD92
:102E40004FF0010806E016B94FF0000802E04FF01D
:102E5000FF387642B54201DD2C4600E034464FF0A3
:102E6000000B21E0009A91B2019A90B200F022F892
:102E70000398284403900298304402900398A0429B
:102E800005DD0398001B03900198384401900298D7
:102E9000A04205DD0298001B02900098404400907B
:102EA0000BF101001FFA80FB601C8345DADD08B0DE
:102EB000BDE8F08F30B504460D462946204602F0A5
:102EC000C3FC02F027FE024800880249088030BD9A
:102ED000180000200008006CF0B504460D461646A8
:102EE0001F462B46324629462046FFF78BFF3B46BE
:102EF000224629462046FFF785FF3B4632463946A3
:102F00002046FFF77FFF3B46324629463046FFF713
:102F100079FFF0BD10B503460C463848808845F26D
:102F20001051884220D13549488902F0EDFD181230
:102F300002F0E4FD31494989491C88B202F0E4FD00
:102F4000D8B202F0DBFD2D49888902F0DDFD2012A8
:102F500002F0D4FD29498989491C88B202F0D4FDC8
:102F6000E0B202F0CBFD42E02448808841F66311D4
:102F7000884228D12148807920B920480088401E05
:102F8000C01A83B21D49488902F0BEFD181202F032
:102F9000B5FDD8B202F0B2FD181202F0AFFDD8B202
:102FA00002F0ACFD1549888902F0AEFD201202F056
:102FB000A5FDE0B202F0A2FD201202F09FFDE0B2FA
:102FC00002F09CFD13E00D49488902F09DFD1812A6
:102FD00002F094FDD8B202F091FD0849888902F010
:102FE00093FD201202F08AFDE0B202F087FD034853
:102FF000008903490880881C028010BD6C010020F4
:10300000FE07006C2DE9F04F05460E461746984620
:10301000DDF824A04FF0000B781B401C1FFA80FB4A
:10302000344613E02146284602F00EFC02F072FD01
:103030004FF0000906E00748A0F800A009F10100E0
:103040001FFA80F9D945F6DB601C84B24445E9DDFE
:10305000BDE8F08F0008006C10B53220FEF782FF4B
:10306000D32002F051FD02F0A5FAF949888002F060
:10307000A1FAF749888002F09DFAF5498880084650
:1030800080884FF6FF7101EA0020F149888002F044
:1030900091FAEF4989880843ED498880084680887D
:1030A00049F2413188427DD0042002F02DFD02F02A
:1030B00081FAE749888002F07DFAE549888002F0CC
:1030C00079FAE3498880084680884FF6FF7101EA63
:1030D0000020DF49888002F06DFADD4989880843C5
:1030E000DB4988800846808848F25251884203D1E3
:1030F00047F28970D6498880D548808847F289711F
:103100008842D0D0D42002F0FFFC02F053FAD0491C
:10311000888002F04FFACE49888002F04BFACC4901
:103120008880084680884FF6FF7101EA0020C84970
:10313000888002F03FFAC64989880843C4498880DC
:103140000846808845F21031884262D055214FF4FC
:10315000704002F0E9FCAA214FF2010002F0E4FC09
:1031600052214FF2020002F0DFFC08214FF203006F
:1031700002F0DAFC01214FF2040002F0D5FC4FF41A
:10318000454002F0C1FC02F015FAB14988800846BA
:1031900080884FF6FF7101EA0020AD4988804CF22B
:1031A000015000E035E002F0AFFC02F003FAA8495C
:1031B00089880843A64988803220FEF7D3FEA448B8
:1031C000808845F21051884223D0A12002F09CFC57
:1031D00002F0F0F99E49888002F0ECF99C49888061
:1031E000084680884FF6FF7101EA002098498880E0
:1031F00002F0E0F996498988084395498880084695
:10320000808845F26171884203D141F6631090498C
:1032100088808F48808849F2413188427ED1CF2012
:1032200002F072FC002002F069FCC12002F066FC92
:10323000302002F063FCED2002F066FC642002F016
:103240005DFC032002F05AFC122002F057FC8120A2
:1032500002F054FCE82002F057FC852002F04EFCFE
:10326000102002F04BFC7A2002F048FCCB2002F048
:103270004BFC392002F042FC2C2002F03FFC0020E5
:1032800002F03CFC342002F039FC022002F036FC53
:10329000F72002F039FC202002F030FCEA2002F096
:1032A00033FC002002F02AFC002002F027FCC020A2
:1032B00002F02AFC1B2002F021FCC12002F024FCB9
:1032C000012002F01BFCC52002F01EFC302002F0A1
:1032D00015FC302002F012FCC72002F015FCB720CC
:1032E00002F00CFC362002F00FFC482002F006FC35
:1032F0003A2002F009FC552002F000FCB12002F057
:1033000003FC002002F0FAFB1A2002F0F7FBB620C3
:1033100002F0FAFB0A2002F0F1FB00E09AE0A220A2
:1033200002F0ECFBF22002F0EFFB002002F0E6FBE3
:10333000262002F0E9FB012002F0E0FBE02002F091
:10334000E3FB0F2002F0DAFB2A2002F0D7FB282053
:1033500002F0D4FB082002F0D1FB0E2002F0CEFBDD
:10336000082002F0CBFB542002F0C8FBA92002F099
:10337000C5FB432002F0C2FB0A2002F0BFFB0F2076
:1033800002F0BCFB002002F0B9FB002002F0B6FB0B
:10339000002002F0B3FB002002F0B0FBE12002F0BD
:1033A000B3FB002002F0AAFB152002F0A7FB1720B8
:1033B00002F0A4FB072002F0A1FB112002F09EFB0B
:1033C000062002F09BFB2B2002F098FB562002F017
:1033D00095FB3C2002F092FB052002F08FFB1020B1
:1033E00002F08CFB0F2002F089FB3F2002F086FBED
:1033F0003F2002F083FB0F2002F080FB2B2002F025
:1034000083FB002002F07AFB002002F077FB012012
:1034100002F074FB3F2002F071FB2A2002F074FBE3
:10342000002002F06BFB002002F068FB002002F09D
:1034300065FBEF2002F062FB112002F065FB7820B3
:10344000FEF790FD292002F05FFB02F0A9B8000012
:103450006C010020FE48808847F2897188427CD147
:10346000112002F051FB7820FEF77CFD362002F09F
:103470004BFB002002F042FB3A2002F045FB052006
:1034800002F03CFBB22002F03FFB0C2002F036FBC6
:103490000C2002F033FB002002F030FB332002F05E
:1034A0002DFB332002F02AFBB72002F02DFB352044
:1034B00002F024FBBB2002F027FB322002F01EFBAF
:1034C000C02002F021FB0C2002F018FBC22002F009
:1034D0001BFB012002F012FBC32002F015FB1020A1
:1034E00002F00CFBC42002F00FFB202002F006FBD0
:1034F000C62002F009FB0F2002F000FBD02002F0F2
:1035000003FBA42002F0FAFAA12002F0F7FAE0206F
:1035100002F0FAFAD02002F0F1FA002002F0EEFAFE
:10352000022002F0EBFA072002F0E8FA0A2002F08B
:10353000E5FA282002F0E2FA322002F0DFFA442015
:1035400002F0DCFA422002F0D9FA062002F0D6FAA4
:103550000E2002F0D3FA122000E056E002F0CEFA7C
:10356000142002F0CBFA172002F0C8FAE12002F092
:10357000CBFAD02002F0C2FA002002F0BFFA0220FB
:1035800002F0BCFA072002F0B9FA0A2002F0B6FAFB
:10359000282002F0B3FA312002F0B0FA542002F0F1
:1035A000ADFA472002F0AAFA0E2002F0A7FA1C207A
:1035B00002F0A4FA172002F0A1FA1B2002F09EFAF2
:1035C0001E2002F09BFA2A2002F09EFA002002F050
:1035D00095FA002002F092FA002002F08FFAEF2014
:1035E00002F08CFA2B2002F08FFA002002F086FA0B
:1035F000002002F083FA012002F080FA3F2002F05E
:103600007DFA292002F080FA1FE79148808845F270
:103610001031884240F07C87ED2002F075FA0120DD
:1036200002F06CFAFE2002F069FAEE2002F06CFA69
:10363000DE2002F063FA212002F060FAF12002F0AD
:1036400063FA012002F05AFADF2002F05DFA10203E
:1036500002F054FAC42002F057FA8F2002F04EFA1A
:10366000C62002F051FA002002F048FAE22002F0EF
:1036700045FAE22002F042FAE22002F03FFABF20CF
:1036800002F042FAAA2002F039FAB02002F03CFA25
:103690000D2002F033FA002002F030FA0D2002F083
:1036A0002DFA002002F02AFA112002F027FA002059
:1036B00002F024FA192002F021FA002002F01EFA8A
:1036C000212002F01BFA002002F018FA2D2002F04F
:1036D00015FA002002F012FA3D2002F00FFA002045
:1036E00002F00CFA5D2002F009FA002002F006FA5E
:1036F0005D2002F003FA002002F000FAB12002F08F
:1037000003FA802002F0FAF9002002F0F7F98B208A
:1037100002F0F4F9002002F0F1F9962002F0EEF93F
:10372000002002F0EBF9B22002F0EEF9002002F0E6
:10373000E5F9002002F0E2F9022002F0DFF90020B2
:1037400002F0DCF9032002F0D9F9002002F0D6F9EA
:10375000B32002F0D9F9002002F0D0F9002002F0E5
:10376000CDF9002002F0CAF9002002F0C7F90020CC
:1037700002F0C4F9002002F0C1F9002002F0BEF905
:10378000002002F0BBF9002002F0B8F9002002F09E
:10379000B5F9002002F0B2F9002002F0AFF90020E4
:1037A00002F0ACF9002002F0A9F9002002F0A6F91D
:1037B000002002F0A3F9002002F0A0F9002002F09E
:1037C0009DF9002002F09AF9002002F097F90020FC
:1037D00002F094F9002002F091F9002002F08EF935
:1037E000002002F08BF9B42002F08EF98B2002F059
:1037F00085F9002002F082F9962002F07FF900207E
:1038000002F07CF9A12002F079F9002002F076F9AB
:10381000B52002F079F9022002F070F9002002F0E0
:103820006DF9032002F06AF9002002F067F9042024
:1038300002F064F9002002F061F9B62002F064F9A8
:10384000002002F05BF9002002F058F9B72001E0F7
:103850006C01002002F058F9002002F04FF900201E
:1038600002F04CF93F2002F049F9002002F046F93D
:103870005E2002F043F9002002F040F9642002F0DB
:103880003DF9002002F03AF98C2002F037F90020CF
:1038900002F034F9AC2002F031F9002002F02EF9E8
:1038A000DC2002F02BF9002002F028F9702002F051
:1038B00025F9002002F022F9902002F01FF90020E3
:1038C00002F01CF9EB2002F019F9002002F016F9C1
:1038D000DC2002F013F9002002F010F9B82002F009
:1038E00013F9002002F00AF9002002F007F9002085
:1038F00002F004F9002002F001F9002002F0FEF8C5
:10390000002002F0FBF8002002F0F8F8002002F09E
:10391000F5F8BA2002F0F8F8242002F0EFF80020C1
:1039200002F0ECF8002002F0E9F8002002F0E6F8DE
:10393000C12002F0E9F8202002F0E0F8002002F0B7
:10394000DDF8542002F0DAF8002002F0D7F8FF206A
:1039500002F0D4F8002002F0D1F8C22002F0D4F82E
:103960000A2002F0CBF8002002F0C8F8042002F090
:10397000C5F8002002F0C2F8C32002F0C5F83C20D0
:1039800002F0BCF8002002F0B9F83A2002F0B6F8D4
:10399000002002F0B3F8392002F0B0F8002002F065
:1039A000ADF8372002F0AAF8002002F0A7F83C207A
:1039B00002F0A4F8002002F0A1F8362002F09EF8F0
:1039C000002002F09BF8322002F098F8002002F06C
:1039D00095F82F2002F092F8002002F08FF82C20AA
:1039E00002F08CF8002002F089F8292002F086F815
:1039F000002002F083F8262002F080F8002002F078
:103A00007DF8242002F07AF8002002F077F82420D4
:103A100002F074F8002002F071F8232002F06EF832
:103A2000002002F06BF83C2002F068F8002002F061
:103A300065F8362002F062F8002002F05FF83220CC
:103A400002F05CF8002002F059F82F2002F056F83E
:103A5000002002F053F82C2002F050F8002002F071
:103A60004DF8292002F04AF8002002F047F82620FD
:103A700002F044F8002002F041F8242002F03EF861
:103A8000002002F03BF8242002F038F8002002F079
:103A900035F8232002F032F8002002F02FF8C4207D
:103AA00002F032F8622002F029F8002002F026F835
:103AB000052002F023F8002002F020F8842002F014
:103AC0001DF8002002F01AF8F02002F017F800208C
:103AD00002F014F8182002F011F8002002F00EF89D
:103AE000A42002F00BF8002002F008F8182002F0E1
:103AF00005F8002002F002F8502001F0FFFF00203E
:103B000001F0FCFF0C2001F0F9FF002001F0F6FFAE
:103B1000172001F0F3FF002001F0F0FF952001F0E5
:103B2000EDFF002001F0EAFFF32001F0E7FF0020A5
:103B300001F0E4FFE62001F0E1FF002001F0DEFFEC
:103B4000C52001F0E1FF322001F0D8FF002001F094
:103B5000D5FF442001F0D2FF002001F0CFFF652007
:103B600001F0CCFF002001F0C9FF762001F0C6FF74
:103B7000002001F0C3FF882001F0C0FF002001F009
:103B8000BDFFC62001F0C0FF202001F0B7FF0020DC
:103B900001F0B4FF172001F0B1FF002001F0AEFFEB
:103BA000012001F0ABFF002001F0A8FFC72001F0C9
:103BB000ABFF002001F0A2FF002001F09FFF0020DA
:103BC00001F09CFF002001F099FFC82001F09CFF4C
:103BD000002001F093FF002001F090FF002001F091
:103BE0008DFF002001F08AFFC92001F08DFF002029
:103BF00001F084FF002001F081FF002001F07EFF32
:103C0000002001F07BFF002001F078FF002001F090
:103C100075FF002001F072FF002001F06FFF00200F
:103C200001F06CFF002001F069FF002001F066FF49
:103C3000002001F063FF002001F060FF002001F090
:103C40005DFF002001F05AFF002001F057FFE02047
:103C500001F05AFF162001F051FF002001F04EFF45
:103C60001C2001F04BFF002001F048FF212001F053
:103C700045FF002001F042FF362001F03FFF002009
:103C800001F03CFF462001F039FF002001F036FF33
:103C9000522001F033FF002001F030FF642001F0DA
:103CA0002DFF002001F02AFF7A2001F027FF0020DD
:103CB00001F024FF8B2001F021FF002001F01EFF06
:103CC000992001F01BFF002001F018FFA82001F04F
:103CD00015FF002001F012FFB92001F00FFF0020B6
:103CE00001F00CFFC42001F009FF002001F006FFE5
:103CF000CA2001F003FF002001F000FFD22001F0F4
:103D0000FDFE002001F0FAFED92001F0F7FE0020B0
:103D100001F0F4FEE02001F0F1FE002001F0EEFEE3
:103D2000F32001F0EBFE002001F0E8FEE12001F0BD
:103D3000EBFE162001F0E2FE002001F0DFFE1C2069
:103D400001F0DCFE002001F0D9FE222001F0D6FEB9
:103D5000002001F0D3FE362001F0D0FE002001F05B
:103D6000CDFE452001F0CAFE002001F0C7FE522022
:103D700001F0C4FE002001F0C1FE642001F0BEFE8F
:103D8000002001F0BBFE7A2001F0B8FE002001F017
:103D9000B5FE8B2001F0B2FE002001F0AFFE9920AD
:103DA00001F0ACFE002001F0A9FEA82001F0A6FE63
:103DB000002001F0A3FEB92001F0A0FE002001F0D8
:103DC0009DFEC42001F09AFE002001F097FECA205B
:103DD00001F094FE002001F091FED22001F08EFE51
:103DE000002001F08BFED82001F088FE002001F0B9
:103DF00085FEE02001F082FE002001F07FFEF3202E
:103E000001F07CFE002001F079FEE22001F07CFE52
:103E1000052001F073FE002001F070FE0B2001F080
:103E20006DFE002001F06AFE1B2001F067FE0020FD
:103E300001F064FE342001F061FE002001F05EFE1E
:103E4000442001F05BFE002001F058FE4F2001F0FD
:103E500055FE002001F052FE612001F04FFE0020CF
:103E600001F04CFE792001F049FE002001F046FEF1
:103E7000882001F043FE002001F040FE972001F071
:103E80003DFE002001F03AFEA62001F037FE0020A2
:103E900001F034FEB72001F031FE002001F02EFECB
:103EA000C22001F02BFE002001F028FEC72001F007
:103EB00025FE002001F022FED12001F01FFE00208F
:103EC00001F01CFED62001F019FE002001F016FEC4
:103ED000DD2001F013FE002001F010FEF32001F0C0
:103EE0000DFE002001F00AFEE32001F00DFE05208A
:103EF00001F004FE002001F001FE0A2001F0FEFDA9
:103F0000002001F0FBFD1C2001F0F8FD002001F075
:103F1000F5FD332001F0F2FD002001F0EFFD44201B
:103F200001F0ECFD002001F0E9FD502001F0E6FD7C
:103F3000002001F0E3FD622001F0E0FD002001F02F
:103F4000DDFD782001F0DAFD002001F0D7FD8820AA
:103F500001F0D4FD002001F0D1FD972001F0CEFD4D
:103F6000002001F0CBFDA62001F0C8FD002001F0EB
:103F7000C5FDB72001F0C2FD002001F0BFFDC22049
:103F800001F0BCFD002001F0B9FDC72001F0B6FD35
:103F9000002001F0B3FDD12001F0B0FD002001F0C0
:103FA000ADFDD52001F0AAFD002001F0A7FDDD2028
:103FB00001F0A4FD002001F0A1FDF32001F09EFD21
:103FC000002001F09BFDE42001F09EFD012001F0A6
:103FD00095FD002001F092FD012001F08FFD0020F1
:103FE00001F08CFD022001F089FD002001F086FD2A
:103FF0002A2001F083FD002001F080FD3C2001F02B
:104000007DFD002001F07AFD4B2001F077FD0020BE
:1040100001F074FD5D2001F071FD002001F06EFDE6
:10402000742001F06BFD002001F068FD842001F098
:1040300065FD002001F062FD932001F05FFD00208E
:1040400001F05CFDA22001F059FD002001F056FDB9
:10405000B32001F053FD002001F050FDBE2001F01F
:104060004DFD002001F04AFDC42001F047FD002075
:1040700001F044FDCD2001F041FD002001F03EFDA6
:10408000D32001F03BFD002001F038FDDD2001F0E0
:1040900035FD002001F032FDF32001F02FFD00205E
:1040A00001F02CFDE52001F02FFD002001F026FDA0
:1040B000002001F023FD002001F020FD002001F090
:1040C0001DFD022001F01AFD002001F017FD29203E
:1040D00001F014FD002001F011FD3C2001F00EFD67
:1040E000002001F00BFD4B2001F008FD002001F045
:1040F00005FD5D2001F002FD002001F0FFFC7420B1
:1041000001F0FCFC002001F0F9FC842001F0F6FC39
:10411000002001F0F3FC932001F0F0FC002001F0FE
:10412000EDFCA22001F0EAFC002001F0E7FCB32046
:1041300001F0E4FC002001F0E1FCBE2001F0DEFC17
:10414000002001F0DBFCC42001F0D8FC002001F0CD
:10415000D5FCCD2001F0D2FC002001F0CFFCD32013
:1041600001F0CCFC002001F0C9FCDC2001F0C6FC11
:10417000002001F0C3FCF32001F0C0FC002001F09E
:10418000BDFCE62001F0C0FC112001F0B7FC0020CE
:1041900001F0B4FC342001F0B1FC002001F0AEFCD1
:1041A000562001F0ABFC002001F0A8FC762001F0C5
:1041B000A5FC002001F0A2FC772001F09FFC00206C
:1041C00001F09CFC662001F099FC002001F096FCB7
:1041D000882001F093FC002001F090FC992001F070
:1041E0008DFC002001F08AFCBB2001F087FC002040
:1041F00001F084FC992001F081FC002001F07EFC9C
:10420000662001F07BFC002001F078FC552001F0D5
:1042100075FC002001F072FC552001F06FFC0020BD
:1042200001F06CFC452001F069FC002001F066FC07
:10423000432001F063FC002001F060FC442001F009
:104240005DFC002001F05AFCE72001F05DFC32200B
:1042500001F054FC002001F051FC552001F04EFC0F
:10426000002001F04BFC762001F048FC002001F01A
:1042700045FC662001F042FC002001F03FFC672075
:1042800001F03CFC002001F039FC672001F036FC15
:10429000002001F033FC872001F030FC002001F009
:1042A0002DFC992001F02AFC002001F027FCBB2006
:1042B00001F024FC002001F021FC992001F01EFCFB
:1042C000002001F01BFC772001F018FC002001F019
:1042D00015FC442001F012FC002001F00FFC5620D8
:1042E00001F00CFC002001F009FC232001F006FC89
:1042F000002001F003FC332001F000FC002001F05D
:10430000FDFB452001F0FAFB002001F0F7FBE8205F
:1043100001F0FAFB002001F0F1FB002001F0EEFBC0
:10432000992001F0EBFB002001F0E8FB872001F071
:10433000E5FB002001F0E2FB882001F0DFFB00201C
:1043400001F0DCFB772001F0D9FB002001F0D6FB67
:10435000662001F0D3FB002001F0D0FB882001F0A3
:10436000CDFB002001F0CAFBAA2001F0C7FB002012
:1043700001F0C4FBBB2001F0C1FB002001F0BEFB3B
:10438000992001F0BBFB002001F0B8FB662001F092
:10439000B5FB002001F0B2FB552001F0AFFB00207F
:1043A00001F0ACFB552001F0A9FB002001F0A6FBB9
:1043B000442001F0A3FB002001F0A0FB442001F009
:1043C0009DFB002001F09AFB552001F097FB002097
:1043D00001F094FBE92001F097FBAA2001F08EFB8D
:1043E000002001F08BFB002001F088FB002001F091
:1043F00085FB002001F088FBAA2001F07FFBCF2085
:1044000001F082FB002001F079FB002001F076FB37
:10441000002001F073FB002001F070FB002001F090
:104420006DFB002001F06AFB002001F067FB00201B
:1044300001F064FB002001F061FB002001F05EFB55
:10444000002001F05BFB002001F058FB002001F090
:1044500055FB002001F052FB002001F04FFB002033
:1044600001F04CFB002001F049FBF02001F04CFB77
:10447000002001F043FB502001F040FB002001F040
:104480003DFB002001F03AFB002001F037FBF32058
:1044900001F03AFB002001F031FBF92001F034FB80
:1044A000062001F02BFB102001F028FB292001F051
:1044B00025FB002001F022FB3A2001F025FB5520CE
:1044C00001F01CFB112001F01FFB6420FDF74AFDE9
:1044D000292001F019FB352001F016FB002001F026
:1044E0000DFB512001F010FBFF2001F007FB5320D2
:1044F00001F00AFB2C2001F001FB552001F004FB28
:10450000822001F0FBFA2C2001F0FEFA01F048B8FD
:10451000FE48808845F2105188427DD155214FF4E4
:10452000704001F001FBAA214FF2010001F0FCFAFA
:1045300052214FF2020001F0F7FA08214FF2030076
:1045400001F0F2FA01214FF2040001F0EDFA0D2121
:104550004FF4304001F0E8FA0D214BF2010001F078
:10456000E3FA0D214BF2020001F0DEFA34214FF4A0
:10457000364001F0D9FA34214BF2016001F0D4FA4F
:1045800034214BF2026001F0CFFA0D214FF431409B
:1045900001F0CAFA0D214BF2011001F0C5FA0D210C
:1045A0004BF2021001F0C0FA34214FF4374001F011
:1045B000BBFA34214BF2017001F0B6FA34214BF210
:1045C000027001F0B1FA00214FF4324001F0ACFA70
:1045D00000214BF2012001F0A7FA00214BF202204A
:1045E00001F0A2FA24214FF4384001F09DFA242171
:1045F0004BF6010001F098FA24214BF6020001F07D
:1046000093FA01214FF43F4001F08EFA0F214FF44D
:10461000334001F089FA00E0FDE30F214BF2013055
:1046200001F082FA0F214BF2023001F07DFA3421C1
:104630004FF4394001F078FA34214BF6011001F0C3
:1046400073FA34214BF6021001F06EFA08214FF490
:10465000354001F069FA08214BF2015001F064FA8B
:1046600008214BF2025001F05FFA03214FF442405F
:1046700001F05AFA24214FF43A4001F055FA24216E
:104680004BF6012001F050FA24214BF6022001F0F4
:104690004BFA00214FF43C4001F046FA78214BF6EA
:1046A000014001F041FA00214BF6024001F03CFAD2
:1046B00000214FF43D4001F037FA78214BF60150CC
:1046C00001F032FA00214BF6025001F02DFA0021E0
:1046D0004FF43E4001F028FA64214BF6016001F0EE
:1046E00023FA00214FF4514001F01EFA33214DF21C
:1046F000011001F019FA00214DF2021001F014FA34
:1047000034214DF2031001F00FFA00214DF2041094
:1047100001F00AFA3A214DF2051001F005FA0021E4
:104720004DF2061001F000FA4A214DF2071001F097
:10473000FBF900214DF2081001F0F6F95C214DF271
:10474000091001F0F1F900214DF20A1001F0ECF925
:1047500081214DF20B1001F0E7F900214DF20C1010
:1047600001F0E2F9A6214DF20D1001F0DDF9002172
:104770004DF20E1001F0D8F9E5214DF20F1001F0C5
:10478000D3F901214DF2101001F0CEF913214DF2B1
:10479000111001F0C9F901214DF2121001F0C4F914
:1047A00054214DF2131001F0BFF901214DF2141004
:1047B00001F0BAF982214DF2151001F0B5F901218D
:1047C0004DF2161001F0B0F9CA214DF2171001F0A8
:1047D000ABF902214DF2181001F0A6F900214DF2BB
:1047E000191001F0A1F902214DF21A1001F09CF903
:1047F00001214DF21B1001F097F902214DF21C101E
:1048000001F092F934214DF21D1001F08DF90221D1
:104810004DF21E1001F088F967214DF21F1001F0D2
:1048200083F902214DF2201001F07EF984214DF22E
:10483000211001F079F902214DF2221001F074F9F2
:10484000A4214DF2231001F06FF902214DF2241042
:1048500001F06AF9B7214DF2251001F065F9022146
:104860004DF2261001F060F9CF214DF2271001F032
:104870005BF902214DF2281001F056F9DE214DF2CC
:10488000291001F051F902214DF22A1001F04CF9E2
:10489000F2214DF22B1001F047F902214DF22C10BC
:1048A00001F042F9FE214DF22D1001F03DF90321F6
:1048B0004DF22E1001F038F910214DF22F1001F0B9
:1048C00033F903214DF2301001F02EF933214DF26E
:1048D000311001F029F903214DF2321001F024F9D1
:1048E0006D214DF2331001F01FF900214FF45240B9
:1048F00001F01AF933214DF2012001F015F90021E0
:104900004DF2022001F010F9342101E06C01002089
:104910004DF2032001F008F900214DF2042001F0CE
:1049200003F93A214DF2052001F0FEF800214DF285
:10493000062001F0F9F84A214DF2072001F0F4F8C1
:1049400000214DF2082001F0EFF85C214DF2092022
:1049500001F0EAF800214DF20A2001F0E5F881218A
:104960004DF20B2001F0E0F800214DF20C2001F097
:10497000DBF8A6214DF20D2001F0D6F800214DF212
:104980000E2001F0D1F8E5214DF20F2001F0CCF816
:1049900001214DF2102001F0C7F813214DF2112032
:1049A00001F0C2F801214DF2122001F0BDF85421AE
:1049B0004DF2132001F0B8F801214DF2142001F05E
:1049C000B3F882214DF2152001F0AEF801214DF22D
:1049D000162001F0A9F8CA214DF2172001F0A4F821
:1049E00002214DF2182001F09FF800214DF219200C
:1049F00001F09AF802214DF21A2001F095F80121F8
:104A00004DF21B2001F090F802214DF21C2001F024
:104A10008BF834214DF21D2001F086F802214DF271
:104A20001E2001F081F867214DF21F2001F07CF873
:104A300002214DF2202001F077F884214DF221204F
:104A400001F072F802214DF2222001F06DF8A4214C
:104A50004DF2232001F068F802214DF2242001F0EC
:104A600063F8B7214DF2252001F05EF802214DF2E6
:104A7000262001F059F8CF214DF2272001F054F8FB
:104A800002214DF2282001F04FF8DE214DF22920BD
:104A900001F04AF802214DF22A2001F045F8F221F6
:104AA0004DF22B2001F040F802214DF22C2001F0B4
:104AB0003BF8FE214DF22D2001F036F803214DF296
:104AC0002E2001F031F810214DF22F2001F02CF8AA
:104AD00003214DF2302001F027F833214DF231202F
:104AE00001F022F803214DF2322001F01DF86D2172
:104AF0004DF2332001F018F800214FF4534001F03B
:104B000013F833214DF2013001F00EF800214DF27F
:104B1000023001F009F834214DF2033001F004F8BD
:104B200000214DF2043000F0FFFF3A214DF2053034
:104B300000F0FAFF00214DF2063000F0F5FF4A21A7
:104B40004DF2073000F0F0FF00214DF2083000F088
:104B5000EBFF5C214DF2093000F0E6FF00214DF241
:104B60000A3000F0E1FF81214DF20B3000F0DCFF54
:104B700000214DF20C3000F0D7FFA6214DF20D3090
:104B800000F0D2FF00214DF20E3000F0CDFFE52104
:104B90004DF20F3000F0C8FF01214DF2103000F04F
:104BA000C3FF13214DF2113000F0BEFF01214DF281
:104BB000123000F0B9FF54214DF2133000F0B4FF71
:104BC00001214DF2143000F0AFFF82214DF215307B
:104BD00000F0AAFF01214DF2163000F0A5FFCA2116
:104BE0004DF2173000F0A0FF02214DF2183000F016
:104BF0009BFF00214DF2193000F096FF02214DF28B
:104C00001A3000F091FF01214DF21B3000F08CFFB3
:104C100002214DF21C3000F087FF34214DF21D308F
:104C200000F082FF02214DF21E3000F07DFF67216F
:104C30004DF21F3000F078FF02214DF2203000F0DD
:104C400073FF84214DF2213000F06EFF02214DF2FE
:104C5000223000F069FFA4214DF2233000F064FF00
:104C600002214DF2243000F05FFFB7214DF22530D4
:104C700000F05AFF02214DF2263000F055FFCF21FF
:104C80004DF2273000F050FF02214DF2283000F0A5
:104C90004BFFDE214DF2293000F046FF02214DF29C
:104CA0002A3000F041FFF2214DF22B3000F03CFFA2
:104CB00002214DF22C3000F037FFFE214DF22D3055
:104CC00000F032FF03214DF22E3000F02DFF1021B5
:104CD0004DF22F3000F028FF03214DF2303000F06C
:104CE00023FF33214DF2313000F01EFF03214DF23E
:104CF000323000F019FF6D214DF2333000F014FF17
:104D000000214FF4544000F00FFF33214DF20140D9
:104D100000F00AFF00214DF2024000F005FF3421AF
:104D20004DF2034000F000FF00214DF2044000F07E
:104D3000FBFE3A214DF2054000F0F6FE00214DF257
:104D4000064000F0F1FE4A214DF2074000F0ECFE73
:104D500000214DF2084000F0E7FE5C214DF20940D1
:104D600000F0E2FE00214DF20A4000F0DDFE81215C
:104D70004DF20B4000F0D8FE00214DF20C4000F047
:104D8000D3FEA6214DF20D4000F0CEFE00214DF2E3
:104D90000E4000F0C9FEE5214DF20F4000F0C4FEC8
:104DA00001214DF2104000F0BFFE13214DF21140E1
:104DB00000F0BAFE01214DF2124000F0B5FE542180
:104DC0004DF2134000F0B0FE01214DF2144000F00E
:104DD000ABFE82214DF2154000F0A6FE01214DF2FE
:104DE000164000F0A1FECA214DF2174000F09CFED3
:104DF00002214DF2184000F097FE00214DF21940BB
:104E000000F092FE02214DF21A4000F08DFE0121C9
:104E10004DF21B4000E005E300F086FE02214DF25A
:104E20001C4000F081FE34214DF21D4000F07CFE5C
:104E300002214DF21E4000F077FE67214DF21F4027
:104E400000F072FE02214DF2204000F06DFE842140
:104E50004DF2214000F068FE02214DF2224000F0A8
:104E600063FEA4214DF2234000F05EFE02214DF2CC
:104E7000244000F059FEB7214DF2254000F054FEC9
:104E800002214DF2264000F04FFECF214DF2274087
:104E900000F04AFE02214DF2284000F045FEDE21DE
:104EA0004DF2294000F040FE02214DF22A4000F070
:104EB0003BFEF2214DF22B4000F036FE02214DF276
:104EC0002C4000F031FEFE214DF22D4000F02CFE72
:104ED00003214DF22E4000F027FE10214DF22F400D
:104EE00000F022FE03214DF2304000F01DFE332180
:104EF0004DF2314000F018FE03214DF2324000F037
:104F000013FE6D214DF2334000F00EFE00214FF4F0
:104F1000554000F009FE33214DF2015000F004FE2F
:104F200000214DF2025000F0FFFD34214DF20350FC
:104F300000F0FAFD00214DF2045000F0F5FD3A2199
:104F40004DF2055000F0F0FD00214DF2065000F04A
:104F5000EBFD4A214DF2075000F0E6FD00214DF235
:104F6000085000F0E1FD5C214DF2095000F0DCFD3D
:104F700000214DF20A5000F0D7FD81214DF20B5077
:104F800000F0D2FD00214DF20C5000F0CDFDA62125
:104F90004DF20D5000F0C8FD00214DF20E5000F012
:104FA000C3FDE5214DF20F5000F0BEFD01214DF291
:104FB000105000F0B9FD13214DF2115000F0B4FD76
:104FC00001214DF2125000F0AFFD54214DF213506B
:104FD00000F0AAFD01214DF2145000F0A5FD822140
:104FE0004DF2155000F0A0FD01214DF2165000F0D9
:104FF0009BFDCA214DF2175000F096FD02214DF2A3
:10500000185000F091FD00214DF2195000F08CFD78
:1050100002214DF21A5000F087FD01214DF21B5084
:1050200000F082FD02214DF21C5000F07DFD342184
:105030004DF21D5000F078FD02214DF21E5000F09F
:1050400073FD67214DF21F5000F06EFD02214DF2FD
:10505000205000F069FD84214DF2215000F064FDE4
:1050600002214DF2225000F05FFDA4214DF22350A9
:1050700000F05AFD02214DF2245000F055FDB721F9
:105080004DF2255000F050FD02214DF2265000F067
:105090004BFDCF214DF2275000F046FD02214DF28D
:1050A000285000F041FDDE214DF2295000F03CFD7A
:1050B00002214DF22A5000F037FDF2214DF22B5023
:1050C00000F032FD02214DF22C5000F02DFDFE21AA
:1050D0004DF22D5000F028FD03214DF22E5000F02E
:1050E00023FD10214DF22F5000F01EFD03214DF243
:1050F000305000F019FD33214DF2315000F014FD15
:1051000003214DF2325000F00FFD6D214DF233506E
:1051100000F00AFD00214FF4564000F005FD332158
:105120004DF2016000F000FD00214DF2026000F040
:10513000FBFC34214DF2036000F0F6FC00214DF23F
:10514000046000F0F1FC3A214DF2056000F0ECFC47
:1051500000214DF2066000F0E7FC4A214DF20760A5
:1051600000F0E2FC00214DF2086000F0DDFC5C2163
:105170004DF2096000F0D8FC00214DF20A6000F009
:10518000D3FC81214DF20B6000F0CEFC00214DF2EA
:105190000C6000F0C9FCA6214DF20D6000F0C4FCCB
:1051A00000214DF20E6000F0BFFCE5214DF20F60D2
:1051B00000F0BAFC01214DF2106000F0B5FC1321A3
:1051C0004DF2116000F0B0FC01214DF2126000F0D0
:1051D000ABFC54214DF2136000F0A6FC01214DF20E
:1051E000146000F0A1FC82214DF2156000F09CFCDF
:1051F00001214DF2166000F097FCCA214DF21760B4
:1052000000F092FC02214DF2186000F08DFC0021AC
:105210004DF2196000F088FC02214DF21A6000F096
:1052200083FC01214DF21B6000F07EFC02214DF257
:105230001C6000F079FC34214DF21D6000F074FC1C
:1052400002214DF21E6000F06FFC67214DF21F60DD
:1052500000F06AFC02214DF2206000F065FC842120
:105260004DF2216000F060FC02214DF2226000F05E
:105270005BFCA4214DF2236000F056FC02214DF2AC
:10528000246000F051FCB7214DF2256000F04CFC89
:1052900002214DF2266000F047FCCF214DF227603D
:1052A00000F042FC02214DF2286000F03DFCDE21BE
:1052B0004DF2296000F038FC02214DF22A6000F026
:1052C00033FCF2214DF22B6000F02EFC02214DF256
:1052D0002C6000F029FCFE214DF22D6000F024FC32
:1052E00003214DF22E6000F01FFC10214DF22F60C3
:1052F00000F01AFC03214DF2306000F015FC332160
:105300004DF2316000F010FC03214DF2326000F0EC
:105310000BFC6D214DF2336000F006FC55214FF47B
:10532000704000F001FCAA214FF2010000F0FCFBEC
:1053300052214FF2020000F0F7FB08214FF2030068
:1053400000F0F2FB00214FF2040000F0EDFBCC2155
:105350004FF4314000F0E8FB00214BF2011000F067
:10536000E3FB05214FF4364000F0DEFB70214FF4E3
:10537000374000F0D9FB70214BF2017000F0D4FBF4
:1053800001214FF4384000F0CFFB03214BF6010020
:1053900000F0CAFB03214BF6020000F0C5FB03211D
:1053A0004BF6030000F0C0FB02214FF43C4000F03C
:1053B000BBFB00214BF6014000F0B6FB00214BF691
:1053C000024000F0B1FBD0214FF4494000F0ACFBAB
:1053D00002214CF6011000F0A7FB50214CF6021000
:1053E00000F0A2FB50214CF6031000F09DFB502171
:1053F0004CF6041000F098FB00214FF4545000F0DC
:1054000093FB55214FF4685000F08EFB4FF4885009
:1054100000F07AFB0120FCF7A5FD4FF4245000F0CA
:1054200073FBBDE06248808841F663118842F8D181
:10543000E22000F069FB1D2000F060FB022000F07C
:105440005DFB042000F05AFB0120FCF78BFDE020FF
:1054500000F05AFB012000F051FB0A20FCF782FD0E
:10546000E02000F051FB032000F048FB0C20FCF78B
:1054700079FD012000F048FB0A20FCF773FDE620CF
:1054800000F042FB2F2000F039FBFF2000F036FB3C
:10549000FF2000F033FBB02000F036FB202000F0AE
:1054A0002DFB002000F02AFB032000F027FB40F238
:1054B0001F3000F023FB012000F020FB40F2DF1042
:1054C00000F01CFB002000F019FBB42000F01CFBD6
:1054D000042000F013FB40F21F4000F00FFB0020FF
:1054E00000F00CFB2E2000F009FB002000F006FB72
:1054F000002000F003FB002000F000FB002000F083
:10550000FDFAB62000F000FB022000F0F7FA4FF49D
:10551000037000F0F3FA002000F0F0FA172000F01A
:10552000EDFA152000F0EAFA002000F0E7FA00207A
:1055300000F0E4FAF02000F0E7FA032000F0DEFAD1
:10554000292000F0E1FAD02000F0DEFA002000F07F
:10555000D5FABE2000F0D8FA052000F0CFFAFE20E0
:1055600000F0CCFA012000F0C9FA002000F0C6FAE1
:10557000002000F0C3FA002000F0C0FAB82000F0CC
:10558000C3FA032000F0BAFA012000F0B7FABA20FB
:1055900000F0BAFA012000F0B1FA642000F010F82F
:1055A0000120FDF797FB4FF6FF70FDF753FB10BD91
:1055B0006C01002001490888704700000008006C59
:1055C0002DE9F0470446BE2000F09EFA052000F0C9
:1055D00095FA204600F0EDFD07464FF066320C4B81
:1055E00000F0FAFD054600F0B7FD1FFA80F94846C5
:1055F00000F084FA012000F081FAFF2000F07EFA2A
:10560000002000F07BFA002000F078FABDE8F08777
:105610006666044070B504460023002689488079F8
:10562000012805D18748808841F66311884208D156
:1056300084488079F0B98348808841F663118842B4
:1056400018D1082C15D2DFE804F00406080A0C0E65
:10565000101206240DE007240BE0042409E00524C1
:1056600007E0012405E0002403E0032401E0022414
:1056700000BF00BF082C1CD2DFE804F00406090CB0
:105680000F12151800BF14E043F0800311E043F03F
:1056900040030EE043F0C0030BE043F0200308E0BA
:1056A00043F0600305E043F0A00302E043F0E003B1
:1056B00000BF00BF6348808845F21051884202D184
:1056C0004FF4585600E036265E48808849F2413152
:1056D000884205D05B48808847F28971884201D1B1
:1056E00043F008031946304600F01EFA55488088FA
:1056F00041F6631188421DD003F0200068B1514883
:10570000008850494988884214DA4E480588408804
:105710004C490880084645800CE04A4800884949C1
:105720004988884206DD4748058840884549088001
:10573000084645804348808845F21051884252D13E
:105740004049488900F0E0F9002000F0D7F93D49D0
:105750004989491C88B200F0D7F9002000F0CEF941
:1057600038494989891C88B200F0CEF93549098841
:10577000491EC1F30F2000F0C1F932494989C91C03
:1057800088B200F0C1F92F490978491EC8B200F06B
:10579000B5F92C49888900F0B7F9002000F0AEF97E
:1057A00028498989491C88B200F0AEF9002000F030
:1057B000A5F924498989891C88B200F0A5F92149F5
:1057C0004988491EC1F30F2000F098F91D498989C5
:1057D000C91C88B200F098F91A498978491EC8B2E4
:1057E00000F08CF92DE01749488900F08DF9002070
:1057F00000F084F9002000F081F912490988491E5F
:10580000C1F30F2000F07AF90E490978491EC8B299
:1058100000F074F90B49888900F076F9002000F057
:105820006DF9002000F06AF906494988491EC1F364
:105830000F2000F063F903498978491EC8B200F0CF
:105840005DF970BD6C01002000B502460B4645486D
:10585000808841F66311884247D142488079A8B9CF
:1058600040480088401E801A82B23E49488900F0B4
:105870004BF9002000F042F9002000F03FF910122F
:1058800000F03CF9D0B200F039F916E0354948890A
:1058900000F03AF9101200F031F9D0B200F02EF910
:1058A00030490988491EC1F30F2000F027F92D491E
:1058B0000978491EC8B200F021F92A49888900F008
:1058C00023F9181200F01AF9D8B200F017F9254997
:1058D0004988491EC1F30F2000F010F92149897849
:1058E000491EC8B200F00AF93AE01E48808845F225
:1058F0001051884220D11B49488900F005F9101247
:1059000000F0FCF817494989491C88B200F0FCF8FE
:10591000D0B200F0F3F81349888900F0F5F81812B6
:1059200000F0ECF80F498989491C88B200F0ECF8C6
:10593000D8B200F0E3F813E00A49488900F0E4F82F
:10594000101200F0DBF8D0B200F0D8F805498889D1
:1059500000F0DAF8181200F0D1F8D8B200F0CEF862
:1059600000BD00006C0100202DE9F84F80460E4676
:1059700017461C46B3462046E31704EB5373DB106F
:1059800021464FEAE47C04EB5C7C4FEAEC0CA4EB90
:10599000CC0CBCF1000F02D04FF0010C01E04FF035
:1059A000000C6344224604EBD27C4FEA6C0C03FBF0
:1059B0000CF3DBB20093A7F12000C7B2002558E03A
:1059C0000C2C07D107EB47002C4901EB800010F8A5
:1059D000059013E0102C05D1294800EB071010F8B2
:1059E00005900BE0182C07D107EBC700254901EB08
:1059F000800010F8059001E0BDE8F88F4FF0000A34
:105A000031E009F0800038B11F48008882B2314689
:105A10004046FDF77FFA08E00A9830B91B48008835
:105A200082B231464046FDF775FA4FEA49604FEAC7
:105A30001069701C86B216484088B04200DCDBE773
:105A4000A6EB0B00A0420AD15E4608F101001FFA46
:105A500080F80F480088404500DCCDE706E00AF1F9
:105A6000010000F0FF0ABAF1080FCADB00BF681C92
:105A7000C5B200988542A3DB00BFBDE7D86400082B
:105A80004C6900083C6F0008180000201C00002032
:105A90006C0100202DE9F84704460D4690469946D2
:105AA000DDE9096704F0FF0A08EB04001FFA80F83B
:105AB00009EB05001FFA80F916E0444502DB544665
:105AC000A81985B24D4500DB14E0002000903A781B
:105AD000334629462046FFF747FF304606EBD07194
